{"abi":[{"type":"constructor","inputs":[{"name":"_registryAddress","type":"address","internalType":"address"},{"name":"_sarcTokenAddress","type":"address","internalType":"address"},{"name":"_maxDailyMint","type":"uint256","internalType":"uint256"},{"name":"_anomalyThreshold","type":"uint256","internalType":"uint256"}],"stateMutability":"nonpayable"},{"type":"function","name":"DEFAULT_ADMIN_ROLE","inputs":[],"outputs":[{"name":"","type":"bytes32","internalType":"bytes32"}],"stateMutability":"view"},{"type":"function","name":"KWH_TO_SARC_RATE","inputs":[],"outputs":[{"name":"","type":"uint256","internalType":"uint256"}],"stateMutability":"view"},{"type":"function","name":"MINTER_ROLE","inputs":[],"outputs":[{"name":"","type":"bytes32","internalType":"bytes32"}],"stateMutability":"view"},{"type":"function","name":"OPERATOR_ROLE","inputs":[],"outputs":[{"name":"","type":"bytes32","internalType":"bytes32"}],"stateMutability":"view"},{"type":"function","name":"anomalyThreshold","inputs":[],"outputs":[{"name":"","type":"uint256","internalType":"uint256"}],"stateMutability":"view"},{"type":"function","name":"circuitBreakerTriggered","inputs":[],"outputs":[{"name":"","type":"bool","internalType":"bool"}],"stateMutability":"view"},{"type":"function","name":"currentDayMinted","inputs":[],"outputs":[{"name":"","type":"uint256","internalType":"uint256"}],"stateMutability":"view"},{"type":"function","name":"getMintingStats","inputs":[],"outputs":[{"name":"todayMinted","type":"uint256","internalType":"uint256"},{"name":"dailyRemaining","type":"uint256","internalType":"uint256"},{"name":"allTimeMinted","type":"uint256","internalType":"uint256"},{"name":"breakerStatus","type":"bool","internalType":"bool"}],"stateMutability":"view"},{"type":"function","name":"getProducerStats","inputs":[{"name":"_producer","type":"address","internalType":"address"}],"outputs":[{"name":"totalMintedByProducer","type":"uint256","internalType":"uint256"}],"stateMutability":"view"},{"type":"function","name":"getRoleAdmin","inputs":[{"name":"role","type":"bytes32","internalType":"bytes32"}],"outputs":[{"name":"","type":"bytes32","internalType":"bytes32"}],"stateMutability":"view"},{"type":"function","name":"grantRole","inputs":[{"name":"role","type":"bytes32","internalType":"bytes32"},{"name":"account","type":"address","internalType":"address"}],"outputs":[],"stateMutability":"nonpayable"},{"type":"function","name":"hasRole","inputs":[{"name":"role","type":"bytes32","internalType":"bytes32"},{"name":"account","type":"address","internalType":"address"}],"outputs":[{"name":"","type":"bool","internalType":"bool"}],"stateMutability":"view"},{"type":"function","name":"lastMintResetTimestamp","inputs":[],"outputs":[{"name":"","type":"uint256","internalType":"uint256"}],"stateMutability":"view"},{"type":"function","name":"lockSarcToken","inputs":[],"outputs":[],"stateMutability":"nonpayable"},{"type":"function","name":"maxDailyMint","inputs":[],"outputs":[{"name":"","type":"uint256","internalType":"uint256"}],"stateMutability":"view"},{"type":"function","name":"mintFromGeneration","inputs":[{"name":"_producer","type":"address","internalType":"address"},{"name":"_kwhAmount","type":"uint256","internalType":"uint256"},{"name":"_ipfsProof","type":"string","internalType":"string"}],"outputs":[{"name":"mintedAmount","type":"uint256","internalType":"uint256"}],"stateMutability":"nonpayable"},{"type":"function","name":"pause","inputs":[],"outputs":[],"stateMutability":"nonpayable"},{"type":"function","name":"paused","inputs":[],"outputs":[{"name":"","type":"bool","internalType":"bool"}],"stateMutability":"view"},{"type":"function","name":"producerTotalMinted","inputs":[{"name":"","type":"address","internalType":"address"}],"outputs":[{"name":"","type":"uint256","internalType":"uint256"}],"stateMutability":"view"},{"type":"function","name":"registry","inputs":[],"outputs":[{"name":"","type":"address","internalType":"contract IRegistry"}],"stateMutability":"view"},{"type":"function","name":"renounceRole","inputs":[{"name":"role","type":"bytes32","internalType":"bytes32"},{"name":"callerConfirmation","type":"address","internalType":"address"}],"outputs":[],"stateMutability":"nonpayable"},{"type":"function","name":"resetCircuitBreaker","inputs":[],"outputs":[],"stateMutability":"nonpayable"},{"type":"function","name":"revokeRole","inputs":[{"name":"role","type":"bytes32","internalType":"bytes32"},{"name":"account","type":"address","internalType":"address"}],"outputs":[],"stateMutability":"nonpayable"},{"type":"function","name":"sarcToken","inputs":[],"outputs":[{"name":"","type":"address","internalType":"contract ISARCToken"}],"stateMutability":"view"},{"type":"function","name":"setAnomalyThreshold","inputs":[{"name":"_newThreshold","type":"uint256","internalType":"uint256"}],"outputs":[],"stateMutability":"nonpayable"},{"type":"function","name":"setMaxDailyMint","inputs":[{"name":"_newMax","type":"uint256","internalType":"uint256"}],"outputs":[],"stateMutability":"nonpayable"},{"type":"function","name":"setRegistry","inputs":[{"name":"_newRegistry","type":"address","internalType":"address"}],"outputs":[],"stateMutability":"nonpayable"},{"type":"function","name":"setSarcToken","inputs":[{"name":"_newToken","type":"address","internalType":"address"}],"outputs":[],"stateMutability":"nonpayable"},{"type":"function","name":"supportsInterface","inputs":[{"name":"interfaceId","type":"bytes4","internalType":"bytes4"}],"outputs":[{"name":"","type":"bool","internalType":"bool"}],"stateMutability":"view"},{"type":"function","name":"tokenLocked","inputs":[],"outputs":[{"name":"","type":"bool","internalType":"bool"}],"stateMutability":"view"},{"type":"function","name":"totalMinted","inputs":[],"outputs":[{"name":"","type":"uint256","internalType":"uint256"}],"stateMutability":"view"},{"type":"function","name":"triggerCircuitBreaker","inputs":[{"name":"_reason","type":"string","internalType":"string"}],"outputs":[],"stateMutability":"nonpayable"},{"type":"function","name":"unpause","inputs":[],"outputs":[],"stateMutability":"nonpayable"},{"type":"event","name":"AnomalyThresholdUpdated","inputs":[{"name":"oldThreshold","type":"uint256","indexed":false,"internalType":"uint256"},{"name":"newThreshold","type":"uint256","indexed":false,"internalType":"uint256"}],"anonymous":false},{"type":"event","name":"CircuitBreakerReset","inputs":[{"name":"admin","type":"address","indexed":true,"internalType":"address"}],"anonymous":false},{"type":"event","name":"CircuitBreakerTriggered","inputs":[{"name":"reason","type":"string","indexed":false,"internalType":"string"},{"name":"timestamp","type":"uint256","indexed":false,"internalType":"uint256"}],"anonymous":false},{"type":"event","name":"MaxDailyMintUpdated","inputs":[{"name":"oldMax","type":"uint256","indexed":false,"internalType":"uint256"},{"name":"newMax","type":"uint256","indexed":false,"internalType":"uint256"}],"anonymous":false},{"type":"event","name":"Minted","inputs":[{"name":"producer","type":"address","indexed":true,"internalType":"address"},{"name":"kwhAmount","type":"uint256","indexed":false,"internalType":"uint256"},{"name":"sarcAmount","type":"uint256","indexed":false,"internalType":"uint256"},{"name":"ipfsProof","type":"string","indexed":false,"internalType":"string"}],"anonymous":false},{"type":"event","name":"Paused","inputs":[{"name":"account","type":"address","indexed":false,"internalType":"address"}],"anonymous":false},{"type":"event","name":"RoleAdminChanged","inputs":[{"name":"role","type":"bytes32","indexed":true,"internalType":"bytes32"},{"name":"previousAdminRole","type":"bytes32","indexed":true,"internalType":"bytes32"},{"name":"newAdminRole","type":"bytes32","indexed":true,"internalType":"bytes32"}],"anonymous":false},{"type":"event","name":"RoleGranted","inputs":[{"name":"role","type":"bytes32","indexed":true,"internalType":"bytes32"},{"name":"account","type":"address","indexed":true,"internalType":"address"},{"name":"sender","type":"address","indexed":true,"internalType":"address"}],"anonymous":false},{"type":"event","name":"RoleRevoked","inputs":[{"name":"role","type":"bytes32","indexed":true,"internalType":"bytes32"},{"name":"account","type":"address","indexed":true,"internalType":"address"},{"name":"sender","type":"address","indexed":true,"internalType":"address"}],"anonymous":false},{"type":"event","name":"TokenLocked","inputs":[{"name":"admin","type":"address","indexed":true,"internalType":"address"}],"anonymous":false},{"type":"event","name":"TokenUpdated","inputs":[{"name":"oldToken","type":"address","indexed":true,"internalType":"address"},{"name":"newToken","type":"address","indexed":true,"internalType":"address"}],"anonymous":false},{"type":"event","name":"Unpaused","inputs":[{"name":"account","type":"address","indexed":false,"internalType":"address"}],"anonymous":false},{"type":"error","name":"AccessControlBadConfirmation","inputs":[]},{"type":"error","name":"AccessControlUnauthorizedAccount","inputs":[{"name":"account","type":"address","internalType":"address"},{"name":"neededRole","type":"bytes32","internalType":"bytes32"}]},{"type":"error","name":"EnforcedPause","inputs":[]},{"type":"error","name":"ExpectedPause","inputs":[]},{"type":"error","name":"ReentrancyGuardReentrantCall","inputs":[]}],"bytecode":{"object":"0x608060405234801562000010575f80fd5b5060405162001889380380620018898339810160408190526200003391620002b4565b60016002556001600160a01b038416620000945760405162461bcd60e51b815260206004820152601860248201527f496e76616c69642072656769737472792061646472657373000000000000000060448201526064015b60405180910390fd5b6001600160a01b038316620000ec5760405162461bcd60e51b815260206004820152601560248201527f496e76616c696420746f6b656e2061646472657373000000000000000000000060448201526064016200008b565b5f82116200013d5760405162461bcd60e51b815260206004820152601a60248201527f4d6178206461696c79206d696e74206d757374206265203e203000000000000060448201526064016200008b565b600380546001600160a01b038087166001600160a01b03199283161790925560048054928616929091169190911790556005829055600981905542600755620001875f33620001ec565b50620001b47f97667070c54ef182b0f5858b034beac1b6f3089aa2d3188bb1e8929f4fa9b92933620001ec565b50620001e17f9f2df0fed2c77648de5860a4cc508cd0818c85b8b8a1ab4ceeef8d981c8956a633620001ec565b5050505050620002f9565b5f828152602081815260408083206001600160a01b038516845290915281205460ff166200028f575f838152602081815260408083206001600160a01b03861684529091529020805460ff19166001179055620002463390565b6001600160a01b0316826001600160a01b0316847f2f8788117e7eff1d82e926ec794901d17c78024a50270940304540a733656f0d60405160405180910390a450600162000292565b505f5b92915050565b80516001600160a01b0381168114620002af575f80fd5b919050565b5f805f8060808587031215620002c8575f80fd5b620002d38562000298565b9350620002e36020860162000298565b6040860151606090960151949790965092505050565b61158280620003075f395ff3fe608060405234801561000f575f80fd5b50600436106101f2575f3560e01c80638456cb5911610114578063b820787a116100a9578063de5f8d9311610079578063de5f8d9314610440578063f3c05f2614610448578063f5b541a61461045b578063fb83a6641461046f578063fd1ce9f714610478575f80fd5b8063b820787a146103d4578063cae28ff8146103f3578063d539139314610406578063d547741f1461042d575f80fd5b8063a2309ff8116100e4578063a2309ff814610387578063a91ee0dc14610390578063ae80db04146103a3578063b7eb6d24146103ac575f80fd5b80638456cb591461035d5780638ba76e271461036557806391d148541461036d578063a217fddf14610380575f80fd5b80635c975abb1161018a5780636a6305591161015a5780636a630559146103025780636f83a586146103165780637a1458091461031f5780637b1039991461034a575f80fd5b80635c975abb146102c857806361b242c5146102d357806362ac384f146102e6578063697a9d7c146102f9575f80fd5b8063325e8c25116101c5578063325e8c251461027657806336568abe146102a05780633f4ba83a146102b357806351108cac146102bb575f80fd5b806301ffc9a7146101f6578063248a9ca31461021e578063297988461461024e5780632f2ff15d14610263575b5f80fd5b61020961020436600461117a565b610487565b60405190151581526020015b60405180910390f35b61024061022c3660046111a8565b5f9081526020819052604090206001015490565b604051908152602001610215565b61026161025c3660046111a8565b6104bd565b005b6102616102713660046111da565b610567565b61027e610591565b6040805194855260208501939093529183015215156060820152608001610215565b6102616102ae3660046111da565b6105f8565b610261610630565b6008546102099060ff1681565b60015460ff16610209565b6102616102e13660046112c2565b610645565b6102616102f43660046112fc565b6106ee565b61024060075481565b60045461020990600160a01b900460ff1681565b61024060095481565b600454610332906001600160a01b031681565b6040516001600160a01b039091168152602001610215565b600354610332906001600160a01b031681565b6102616107e4565b6102616107f6565b61020961037b3660046111da565b61088b565b6102405f81565b610240600a5481565b61026161039e3660046112fc565b6108b3565b61024060055481565b6102406103ba3660046112fc565b6001600160a01b03165f908152600b602052604090205490565b6102406103e23660046112fc565b600b6020525f908152604090205481565b610240610401366004611315565b610928565b6102407f9f2df0fed2c77648de5860a4cc508cd0818c85b8b8a1ab4ceeef8d981c8956a681565b61026161043b3660046111da565b610e00565b610261610e24565b6102616104563660046111a8565b610ea7565b6102405f8051602061152d83398151915281565b61024060065481565b610240670de0b6b3a764000081565b5f6001600160e01b03198216637965db0b60e01b14806104b757506301ffc9a760e01b6001600160e01b03198316145b92915050565b5f8051602061152d8339815191526104d481610f3d565b5f82116105205760405162461bcd60e51b815260206004820152601560248201527405468726573686f6c64206d757374206265203e203605c1b60448201526064015b60405180910390fd5b600980549083905560408051828152602081018590527f30f0cad552f14df65179d5a53fe62e99165eca8e3848db78089af612175fee8291015b60405180910390a1505050565b5f8281526020819052604090206001015461058181610f3d565b61058b8383610f47565b50505050565b5f805f8062015180600754426105a7919061137c565b106105b9575f935060055492506105e2565b6006549350600654600554116105cf575f6105df565b6006546005546105df919061137c565b92505b5050600a5460085492939192909160ff90911690565b6001600160a01b03811633146106215760405163334bd91960e11b815260040160405180910390fd5b61062b8282610fd6565b505050565b5f61063a81610f3d565b61064261103f565b50565b5f8051602061152d83398151915261065c81610f3d565b60085460ff16156106a35760405162461bcd60e51b8152602060048201526011602482015270105b1c9958591e481d1c9a59d9d95c9959607a1b6044820152606401610517565b6008805460ff191660011790556040517f9a67283e259b60ad992613fe36fe808ce9a65fc69b7893a856fbe5f926f25184906106e290849042906113dc565b60405180910390a15050565b5f6106f881610f3d565b600454600160a01b900460ff16156107445760405162461bcd60e51b815260206004820152600f60248201526e151bdad95b881a5cc81b1bd8dad959608a1b6044820152606401610517565b6001600160a01b0382166107925760405162461bcd60e51b8152602060048201526015602482015274496e76616c696420746f6b656e206164647265737360581b6044820152606401610517565b600480546001600160a01b038481166001600160a01b0319831681179093556040519116919082907f0b1186973f810894b87ab0bfbee422fddcaad21b46dc705a561451bbb6bac117905f90a3505050565b5f6107ee81610f3d565b610642611091565b5f61080081610f3d565b600454600160a01b900460ff161561084b5760405162461bcd60e51b815260206004820152600e60248201526d105b1c9958591e481b1bd8dad95960921b6044820152606401610517565b6004805460ff60a01b1916600160a01b17905560405133907fca1b0a14e18ada4c44846768dd186e35630cdc5cfeaca83c404ae4acaafbecd7905f90a250565b5f918252602082815260408084206001600160a01b0393909316845291905290205460ff1690565b5f6108bd81610f3d565b6001600160a01b0382166109055760405162461bcd60e51b815260206004820152600f60248201526e496e76616c6964206164647265737360881b6044820152606401610517565b50600380546001600160a01b0319166001600160a01b0392909216919091179055565b5f7f9f2df0fed2c77648de5860a4cc508cd0818c85b8b8a1ab4ceeef8d981c8956a661095381610f3d565b61095b6110cc565b6109636110f4565b60085460ff16156109af5760405162461bcd60e51b81526020600482015260166024820152754369726375697420627265616b65722061637469766560501b6044820152606401610517565b6001600160a01b038516610a055760405162461bcd60e51b815260206004820152601860248201527f496e76616c69642070726f6475636572206164647265737300000000000000006044820152606401610517565b5f8411610a495760405162461bcd60e51b81526020600482015260126024820152710416d6f756e74206d757374206265203e20360741b6044820152606401610517565b5f835111610a8f5760405162461bcd60e51b815260206004820152601360248201527212541194c81c1c9bdbd9881c995c5d5a5c9959606a1b6044820152606401610517565b6201518060075442610aa1919061137c565b10610aaf575f600655426007555b600354604051633af32abf60e01b81526001600160a01b03878116600483015290911690633af32abf90602401602060405180830381865afa158015610af7573d5f803e3d5ffd5b505050506040513d601f19601f82011682018060405250810190610b1b919061140c565b610b675760405162461bcd60e51b815260206004820152601860248201527f50726f6475636572206e6f742077686974656c697374656400000000000000006044820152606401610517565b600354604051631e3a4dff60e11b81526001600160a01b038781166004830152602482018790525f928392911690633c749bfe906044015f60405180830381865afa158015610bb8573d5f803e3d5ffd5b505050506040513d5f823e601f3d908101601f19168201604052610bdf9190810190611425565b91509150818190610c035760405162461bcd60e51b815260040161051791906114aa565b50670de0b6b3a7640000610c1781886114bc565b610c2191906114d3565b935060055484600654610c3491906114f2565b1115610c825760405162461bcd60e51b815260206004820152601b60248201527f45786365656473206461696c79206d696e74696e67206c696d697400000000006044820152606401610517565b8360065f828254610c9391906114f2565b9250508190555083600a5f828254610cab91906114f2565b90915550506001600160a01b0387165f908152600b602052604081208054869290610cd79084906114f2565b9091555050600354604051631bb0d7bf60e01b81526001600160a01b038981166004830152602482018990526044820187905290911690631bb0d7bf906064015f604051808303815f87803b158015610d2e575f80fd5b505af1158015610d40573d5f803e3d5ffd5b5050600480546040516340c10f1960e01b81526001600160a01b038c81169382019390935260248101899052911692506340c10f1991506044015f604051808303815f87803b158015610d91575f80fd5b505af1158015610da3573d5f803e3d5ffd5b50505050866001600160a01b03167ff2cb5e52049d127ad1c335f1cc25f2fdbc911bec1beb2611f4c1e8b1c274d4b4878688604051610de493929190611505565b60405180910390a25050610df86001600255565b509392505050565b5f82815260208190526040902060010154610e1a81610f3d565b61058b8383610fd6565b5f610e2e81610f3d565b60085460ff16610e705760405162461bcd60e51b815260206004820152600d60248201526c139bdd081d1c9a59d9d95c9959609a1b6044820152606401610517565b6008805460ff1916905560405133907f07663ee3f7c1099057fc9fc555efb675b77fe234386ec977b12f15d5f24fd030905f90a250565b5f8051602061152d833981519152610ebe81610f3d565b5f8211610eff5760405162461bcd60e51b815260206004820152600f60248201526e04d6178206d757374206265203e203608c1b6044820152606401610517565b600580549083905560408051828152602081018590527f23a75653338d1a115fe399f6e5daa36a99ffb455637df25caf412df61b147ea7910161055a565b610642813361111a565b5f610f52838361088b565b610fcf575f838152602081815260408083206001600160a01b03861684529091529020805460ff19166001179055610f873390565b6001600160a01b0316826001600160a01b0316847f2f8788117e7eff1d82e926ec794901d17c78024a50270940304540a733656f0d60405160405180910390a45060016104b7565b505f6104b7565b5f610fe1838361088b565b15610fcf575f838152602081815260408083206001600160a01b0386168085529252808320805460ff1916905551339286917ff6391f5c32d9c69d2a47ea670b442974b53935d1edc7fd64eb21e047a839171b9190a45060016104b7565b611047611157565b6001805460ff191690557f5db9ee0a495bf2e6ff9c91a7834c1ba4fdd244a5e8aa4e537bd38aeae4b073aa335b6040516001600160a01b03909116815260200160405180910390a1565b6110996110f4565b6001805460ff1916811790557f62e78cea01bee320cd4e420270b5ea74000d11b0c9f74754ebdbfc544b05a25833611074565b60028054036110ee57604051633ee5aeb560e01b815260040160405180910390fd5b60028055565b60015460ff16156111185760405163d93c066560e01b815260040160405180910390fd5b565b611124828261088b565b6111535760405163e2517d3f60e01b81526001600160a01b038216600482015260248101839052604401610517565b5050565b60015460ff1661111857604051638dfc202b60e01b815260040160405180910390fd5b5f6020828403121561118a575f80fd5b81356001600160e01b0319811681146111a1575f80fd5b9392505050565b5f602082840312156111b8575f80fd5b5035919050565b80356001600160a01b03811681146111d5575f80fd5b919050565b5f80604083850312156111eb575f80fd5b823591506111fb602084016111bf565b90509250929050565b634e487b7160e01b5f52604160045260245ffd5b604051601f8201601f1916810167ffffffffffffffff8111828210171561124157611241611204565b604052919050565b5f67ffffffffffffffff82111561126257611262611204565b50601f01601f191660200190565b5f82601f83011261127f575f80fd5b813561129261128d82611249565b611218565b8181528460208386010111156112a6575f80fd5b816020850160208301375f918101602001919091529392505050565b5f602082840312156112d2575f80fd5b813567ffffffffffffffff8111156112e8575f80fd5b6112f484828501611270565b949350505050565b5f6020828403121561130c575f80fd5b6111a1826111bf565b5f805f60608486031215611327575f80fd5b611330846111bf565b925060208401359150604084013567ffffffffffffffff811115611352575f80fd5b61135e86828701611270565b9150509250925092565b634e487b7160e01b5f52601160045260245ffd5b818103818111156104b7576104b7611368565b5f5b838110156113a9578181015183820152602001611391565b50505f910152565b5f81518084526113c881602086016020860161138f565b601f01601f19169290920160200192915050565b604081525f6113ee60408301856113b1565b90508260208301529392505050565b805180151581146111d5575f80fd5b5f6020828403121561141c575f80fd5b6111a1826113fd565b5f8060408385031215611436575f80fd5b61143f836113fd565b9150602083015167ffffffffffffffff81111561145a575f80fd5b8301601f8101851361146a575f80fd5b805161147861128d82611249565b81815286602083850101111561148c575f80fd5b61149d82602083016020860161138f565b8093505050509250929050565b602081525f6111a160208301846113b1565b80820281158282048414176104b7576104b7611368565b5f826114ed57634e487b7160e01b5f52601260045260245ffd5b500490565b808201808211156104b7576104b7611368565b838152826020820152606060408201525f61152360608301846113b1565b9594505050505056fe97667070c54ef182b0f5858b034beac1b6f3089aa2d3188bb1e8929f4fa9b929a264697066735822122031d2641e588443721c712b6daeb36e0540f9f55024b4e3ca8adb4f76b434487c64736f6c63430008140033","linkReferences":{}},"methodIdentifiers":{"DEFAULT_ADMIN_ROLE()":"a217fddf","KWH_TO_SARC_RATE()":"fd1ce9f7","MINTER_ROLE()":"d5391393","OPERATOR_ROLE()":"f5b541a6","anomalyThreshold()":"6f83a586","circuitBreakerTriggered()":"51108cac","currentDayMinted()":"fb83a664","getMintingStats()":"325e8c25","getProducerStats(address)":"b7eb6d24","getRoleAdmin(bytes32)":"248a9ca3","grantRole(bytes32,address)":"2f2ff15d","hasRole(bytes32,address)":"91d14854","lastMintResetTimestamp()":"697a9d7c","lockSarcToken()":"8ba76e27","maxDailyMint()":"ae80db04","mintFromGeneration(address,uint256,string)":"cae28ff8","pause()":"8456cb59","paused()":"5c975abb","producerTotalMinted(address)":"b820787a","registry()":"7b103999","renounceRole(bytes32,address)":"36568abe","resetCircuitBreaker()":"de5f8d93","revokeRole(bytes32,address)":"d547741f","sarcToken()":"7a145809","setAnomalyThreshold(uint256)":"29798846","setMaxDailyMint(uint256)":"f3c05f26","setRegistry(address)":"a91ee0dc","setSarcToken(address)":"62ac384f","supportsInterface(bytes4)":"01ffc9a7","tokenLocked()":"6a630559","totalMinted()":"a2309ff8","triggerCircuitBreaker(string)":"61b242c5","unpause()":"3f4ba83a"},"id":7}