{"abi":[{"type":"constructor","inputs":[],"stateMutability":"nonpayable"},{"type":"function","name":"BURNER_ROLE","inputs":[],"outputs":[{"name":"","type":"bytes32","internalType":"bytes32"}],"stateMutability":"view"},{"type":"function","name":"DEFAULT_ADMIN_ROLE","inputs":[],"outputs":[{"name":"","type":"bytes32","internalType":"bytes32"}],"stateMutability":"view"},{"type":"function","name":"MINTER_ROLE","inputs":[],"outputs":[{"name":"","type":"bytes32","internalType":"bytes32"}],"stateMutability":"view"},{"type":"function","name":"allowance","inputs":[{"name":"owner","type":"address","internalType":"address"},{"name":"spender","type":"address","internalType":"address"}],"outputs":[{"name":"","type":"uint256","internalType":"uint256"}],"stateMutability":"view"},{"type":"function","name":"approve","inputs":[{"name":"spender","type":"address","internalType":"address"},{"name":"value","type":"uint256","internalType":"uint256"}],"outputs":[{"name":"","type":"bool","internalType":"bool"}],"stateMutability":"nonpayable"},{"type":"function","name":"balanceOf","inputs":[{"name":"account","type":"address","internalType":"address"}],"outputs":[{"name":"","type":"uint256","internalType":"uint256"}],"stateMutability":"view"},{"type":"function","name":"burn","inputs":[{"name":"amount","type":"uint256","internalType":"uint256"}],"outputs":[],"stateMutability":"nonpayable"},{"type":"function","name":"burnFrom","inputs":[{"name":"from","type":"address","internalType":"address"},{"name":"amount","type":"uint256","internalType":"uint256"}],"outputs":[],"stateMutability":"nonpayable"},{"type":"function","name":"decimals","inputs":[],"outputs":[{"name":"","type":"uint8","internalType":"uint8"}],"stateMutability":"pure"},{"type":"function","name":"getRoleAdmin","inputs":[{"name":"role","type":"bytes32","internalType":"bytes32"}],"outputs":[{"name":"","type":"bytes32","internalType":"bytes32"}],"stateMutability":"view"},{"type":"function","name":"grantRole","inputs":[{"name":"role","type":"bytes32","internalType":"bytes32"},{"name":"account","type":"address","internalType":"address"}],"outputs":[],"stateMutability":"nonpayable"},{"type":"function","name":"hasRole","inputs":[{"name":"role","type":"bytes32","internalType":"bytes32"},{"name":"account","type":"address","internalType":"address"}],"outputs":[{"name":"","type":"bool","internalType":"bool"}],"stateMutability":"view"},{"type":"function","name":"mint","inputs":[{"name":"to","type":"address","internalType":"address"},{"name":"amount","type":"uint256","internalType":"uint256"}],"outputs":[],"stateMutability":"nonpayable"},{"type":"function","name":"name","inputs":[],"outputs":[{"name":"","type":"string","internalType":"string"}],"stateMutability":"view"},{"type":"function","name":"pause","inputs":[],"outputs":[],"stateMutability":"nonpayable"},{"type":"function","name":"paused","inputs":[],"outputs":[{"name":"","type":"bool","internalType":"bool"}],"stateMutability":"view"},{"type":"function","name":"renounceRole","inputs":[{"name":"role","type":"bytes32","internalType":"bytes32"},{"name":"callerConfirmation","type":"address","internalType":"address"}],"outputs":[],"stateMutability":"nonpayable"},{"type":"function","name":"revokeRole","inputs":[{"name":"role","type":"bytes32","internalType":"bytes32"},{"name":"account","type":"address","internalType":"address"}],"outputs":[],"stateMutability":"nonpayable"},{"type":"function","name":"supportsInterface","inputs":[{"name":"interfaceId","type":"bytes4","internalType":"bytes4"}],"outputs":[{"name":"","type":"bool","internalType":"bool"}],"stateMutability":"view"},{"type":"function","name":"symbol","inputs":[],"outputs":[{"name":"","type":"string","internalType":"string"}],"stateMutability":"view"},{"type":"function","name":"totalSupply","inputs":[],"outputs":[{"name":"","type":"uint256","internalType":"uint256"}],"stateMutability":"view"},{"type":"function","name":"transfer","inputs":[{"name":"to","type":"address","internalType":"address"},{"name":"value","type":"uint256","internalType":"uint256"}],"outputs":[{"name":"","type":"bool","internalType":"bool"}],"stateMutability":"nonpayable"},{"type":"function","name":"transferFrom","inputs":[{"name":"from","type":"address","internalType":"address"},{"name":"to","type":"address","internalType":"address"},{"name":"value","type":"uint256","internalType":"uint256"}],"outputs":[{"name":"","type":"bool","internalType":"bool"}],"stateMutability":"nonpayable"},{"type":"function","name":"unpause","inputs":[],"outputs":[],"stateMutability":"nonpayable"},{"type":"event","name":"Approval","inputs":[{"name":"owner","type":"address","indexed":true,"internalType":"address"},{"name":"spender","type":"address","indexed":true,"internalType":"address"},{"name":"value","type":"uint256","indexed":false,"internalType":"uint256"}],"anonymous":false},{"type":"event","name":"Paused","inputs":[{"name":"account","type":"address","indexed":false,"internalType":"address"}],"anonymous":false},{"type":"event","name":"RoleAdminChanged","inputs":[{"name":"role","type":"bytes32","indexed":true,"internalType":"bytes32"},{"name":"previousAdminRole","type":"bytes32","indexed":true,"internalType":"bytes32"},{"name":"newAdminRole","type":"bytes32","indexed":true,"internalType":"bytes32"}],"anonymous":false},{"type":"event","name":"RoleGranted","inputs":[{"name":"role","type":"bytes32","indexed":true,"internalType":"bytes32"},{"name":"account","type":"address","indexed":true,"internalType":"address"},{"name":"sender","type":"address","indexed":true,"internalType":"address"}],"anonymous":false},{"type":"event","name":"RoleRevoked","inputs":[{"name":"role","type":"bytes32","indexed":true,"internalType":"bytes32"},{"name":"account","type":"address","indexed":true,"internalType":"address"},{"name":"sender","type":"address","indexed":true,"internalType":"address"}],"anonymous":false},{"type":"event","name":"TokensBurned","inputs":[{"name":"from","type":"address","indexed":true,"internalType":"address"},{"name":"amount","type":"uint256","indexed":false,"internalType":"uint256"},{"name":"burner","type":"address","indexed":true,"internalType":"address"}],"anonymous":false},{"type":"event","name":"TokensMinted","inputs":[{"name":"to","type":"address","indexed":true,"internalType":"address"},{"name":"amount","type":"uint256","indexed":false,"internalType":"uint256"},{"name":"minter","type":"address","indexed":true,"internalType":"address"}],"anonymous":false},{"type":"event","name":"Transfer","inputs":[{"name":"from","type":"address","indexed":true,"internalType":"address"},{"name":"to","type":"address","indexed":true,"internalType":"address"},{"name":"value","type":"uint256","indexed":false,"internalType":"uint256"}],"anonymous":false},{"type":"event","name":"Unpaused","inputs":[{"name":"account","type":"address","indexed":false,"internalType":"address"}],"anonymous":false},{"type":"error","name":"AccessControlBadConfirmation","inputs":[]},{"type":"error","name":"AccessControlUnauthorizedAccount","inputs":[{"name":"account","type":"address","internalType":"address"},{"name":"neededRole","type":"bytes32","internalType":"bytes32"}]},{"type":"error","name":"ERC20InsufficientAllowance","inputs":[{"name":"spender","type":"address","internalType":"address"},{"name":"allowance","type":"uint256","internalType":"uint256"},{"name":"needed","type":"uint256","internalType":"uint256"}]},{"type":"error","name":"ERC20InsufficientBalance","inputs":[{"name":"sender","type":"address","internalType":"address"},{"name":"balance","type":"uint256","internalType":"uint256"},{"name":"needed","type":"uint256","internalType":"uint256"}]},{"type":"error","name":"ERC20InvalidApprover","inputs":[{"name":"approver","type":"address","internalType":"address"}]},{"type":"error","name":"ERC20InvalidReceiver","inputs":[{"name":"receiver","type":"address","internalType":"address"}]},{"type":"error","name":"ERC20InvalidSender","inputs":[{"name":"sender","type":"address","internalType":"address"}]},{"type":"error","name":"ERC20InvalidSpender","inputs":[{"name":"spender","type":"address","internalType":"address"}]},{"type":"error","name":"EnforcedPause","inputs":[]},{"type":"error","name":"ExpectedPause","inputs":[]}],"bytecode":{"object":"0x608060405234801562000010575f80fd5b5060405180604001604052806009815260200168536f6c61722041524360b81b815250604051806040016040528060048152602001637341524360e01b8152508160039081620000619190620001d8565b506004620000708282620001d8565b506200008191505f90503362000088565b50620002a0565b5f8281526005602090815260408083206001600160a01b038516845290915281205460ff166200012f575f8381526005602090815260408083206001600160a01b03861684529091529020805460ff19166001179055620000e63390565b6001600160a01b0316826001600160a01b0316847f2f8788117e7eff1d82e926ec794901d17c78024a50270940304540a733656f0d60405160405180910390a450600162000132565b505f5b92915050565b634e487b7160e01b5f52604160045260245ffd5b600181811c908216806200016157607f821691505b6020821081036200018057634e487b7160e01b5f52602260045260245ffd5b50919050565b601f821115620001d3575f81815260208120601f850160051c81016020861015620001ae5750805b601f850160051c820191505b81811015620001cf57828155600101620001ba565b5050505b505050565b81516001600160401b03811115620001f457620001f462000138565b6200020c816200020584546200014c565b8462000186565b602080601f83116001811462000242575f84156200022a5750858301515b5f19600386901b1c1916600185901b178555620001cf565b5f85815260208120601f198616915b82811015620002725788860151825594840194600190910190840162000251565b50858210156200029057878501515f19600388901b60f8161c191681555b5050505050600190811b01905550565b610f5e80620002ae5f395ff3fe608060405234801561000f575f80fd5b5060043610610153575f3560e01c806342966c68116100bf57806395d89b411161007957806395d89b41146102db578063a217fddf146102e3578063a9059cbb146102ea578063d5391393146102fd578063d547741f14610324578063dd62ed3e14610337575f80fd5b806342966c68146102675780635c975abb1461027a57806370a082311461028557806379cc6790146102ad5780638456cb59146102c057806391d14854146102c8575f80fd5b8063282c51f311610110578063282c51f3146101ee5780632f2ff15d14610215578063313ce5671461022a57806336568abe146102395780633f4ba83a1461024c57806340c10f1914610254575f80fd5b806301ffc9a71461015757806306fdde031461017f578063095ea7b31461019457806318160ddd146101a757806323b872dd146101b9578063248a9ca3146101cc575b5f80fd5b61016a610165366004610d2e565b61036f565b60405190151581526020015b60405180910390f35b61018761037f565b6040516101769190610d5c565b61016a6101a2366004610dc2565b61040f565b6002545b604051908152602001610176565b61016a6101c7366004610dea565b610426565b6101ab6101da366004610e23565b5f9081526005602052604090206001015490565b6101ab7f3c11d16cbaffd01df69ce1c404f6340ee057498f5f00246190ea54220576a84881565b610228610223366004610e3a565b610449565b005b60405160128152602001610176565b610228610247366004610e3a565b610473565b6102286104ab565b610228610262366004610dc2565b6104c0565b610228610275366004610e23565b6105bc565b60065460ff1661016a565b6101ab610293366004610e64565b6001600160a01b03165f9081526020819052604090205490565b6102286102bb366004610dc2565b610627565b610228610730565b61016a6102d6366004610e3a565b610742565b61018761076c565b6101ab5f81565b61016a6102f8366004610dc2565b61077b565b6101ab7f9f2df0fed2c77648de5860a4cc508cd0818c85b8b8a1ab4ceeef8d981c8956a681565b610228610332366004610e3a565b610788565b6101ab610345366004610e7d565b6001600160a01b039182165f90815260016020908152604080832093909416825291909152205490565b5f610379826107ac565b92915050565b60606003805461038e90610ea5565b80601f01602080910402602001604051908101604052809291908181526020018280546103ba90610ea5565b80156104055780601f106103dc57610100808354040283529160200191610405565b820191905f5260205f20905b8154815290600101906020018083116103e857829003601f168201915b5050505050905090565b5f3361041c8185856107e0565b5060019392505050565b5f336104338582856107ed565b61043e858585610863565b506001949350505050565b5f82815260056020526040902060010154610463816108c0565b61046d83836108ca565b50505050565b6001600160a01b038116331461049c5760405163334bd91960e11b815260040160405180910390fd5b6104a6828261095b565b505050565b5f6104b5816108c0565b6104bd6109c6565b50565b7f9f2df0fed2c77648de5860a4cc508cd0818c85b8b8a1ab4ceeef8d981c8956a66104ea816108c0565b6104f2610a18565b6001600160a01b03831661054d5760405162461bcd60e51b815260206004820152601b60248201527f43616e6e6f74206d696e7420746f207a65726f2061646472657373000000000060448201526064015b60405180910390fd5b5f821161056c5760405162461bcd60e51b815260040161054490610edd565b6105768383610a3e565b60405182815233906001600160a01b038516907f969cd201f68f120baff2bf3c59bc3b534434e08b69a71a14ab85cb79cd3b63e4906020015b60405180910390a3505050565b6105c4610a18565b5f81116105e35760405162461bcd60e51b815260040161054490610edd565b6105ed3382610a76565b604051818152339081907f08009940fb138ae33fbb70c10b643e840c71f1654344cc173975a815e117e6879060200160405180910390a350565b7f3c11d16cbaffd01df69ce1c404f6340ee057498f5f00246190ea54220576a848610651816108c0565b610659610a18565b6001600160a01b0383166106af5760405162461bcd60e51b815260206004820152601d60248201527f43616e6e6f74206275726e2066726f6d207a65726f20616464726573730000006044820152606401610544565b5f82116106ce5760405162461bcd60e51b815260040161054490610edd565b6001600160a01b03831633146106e9576106e98333846107ed565b6106f38383610a76565b60405182815233906001600160a01b038516907f08009940fb138ae33fbb70c10b643e840c71f1654344cc173975a815e117e687906020016105af565b5f61073a816108c0565b6104bd610aaa565b5f9182526005602090815260408084206001600160a01b0393909316845291905290205460ff1690565b60606004805461038e90610ea5565b5f3361041c818585610863565b5f828152600560205260409020600101546107a2816108c0565b61046d838361095b565b5f6001600160e01b03198216637965db0b60e01b148061037957506301ffc9a760e01b6001600160e01b0319831614610379565b6104a68383836001610ae7565b6001600160a01b038381165f908152600160209081526040808320938616835292905220545f1981101561046d578181101561085557604051637dc7a0d960e11b81526001600160a01b03841660048201526024810182905260448101839052606401610544565b61046d84848484035f610ae7565b6001600160a01b03831661088c57604051634b637e8f60e11b81525f6004820152602401610544565b6001600160a01b0382166108b55760405163ec442f0560e01b81525f6004820152602401610544565b6104a6838383610bb9565b6104bd8133610cd2565b5f6108d58383610742565b610954575f8381526005602090815260408083206001600160a01b03861684529091529020805460ff1916600117905561090c3390565b6001600160a01b0316826001600160a01b0316847f2f8788117e7eff1d82e926ec794901d17c78024a50270940304540a733656f0d60405160405180910390a4506001610379565b505f610379565b5f6109668383610742565b15610954575f8381526005602090815260408083206001600160a01b0386168085529252808320805460ff1916905551339286917ff6391f5c32d9c69d2a47ea670b442974b53935d1edc7fd64eb21e047a839171b9190a4506001610379565b6109ce610d0b565b6006805460ff191690557f5db9ee0a495bf2e6ff9c91a7834c1ba4fdd244a5e8aa4e537bd38aeae4b073aa335b6040516001600160a01b03909116815260200160405180910390a1565b60065460ff1615610a3c5760405163d93c066560e01b815260040160405180910390fd5b565b6001600160a01b038216610a675760405163ec442f0560e01b81525f6004820152602401610544565b610a725f8383610bb9565b5050565b6001600160a01b038216610a9f57604051634b637e8f60e11b81525f6004820152602401610544565b610a72825f83610bb9565b610ab2610a18565b6006805460ff191660011790557f62e78cea01bee320cd4e420270b5ea74000d11b0c9f74754ebdbfc544b05a2586109fb3390565b6001600160a01b038416610b105760405163e602df0560e01b81525f6004820152602401610544565b6001600160a01b038316610b3957604051634a1406b160e11b81525f6004820152602401610544565b6001600160a01b038085165f908152600160209081526040808320938716835292905220829055801561046d57826001600160a01b0316846001600160a01b03167f8c5be1e5ebec7d5bd14f71427d1e84f3dd0314c0f7b2291e5b200ac8c7c3b92584604051610bab91815260200190565b60405180910390a350505050565b6001600160a01b038316610be3578060025f828254610bd89190610f09565b90915550610c539050565b6001600160a01b0383165f9081526020819052604090205481811015610c355760405163391434e360e21b81526001600160a01b03851660048201526024810182905260448101839052606401610544565b6001600160a01b0384165f9081526020819052604090209082900390555b6001600160a01b038216610c6f57600280548290039055610c8d565b6001600160a01b0382165f9081526020819052604090208054820190555b816001600160a01b0316836001600160a01b03167fddf252ad1be2c89b69c2b068fc378daa952ba7f163c4a11628f55a4df523b3ef836040516105af91815260200190565b610cdc8282610742565b610a725760405163e2517d3f60e01b81526001600160a01b038216600482015260248101839052604401610544565b60065460ff16610a3c57604051638dfc202b60e01b815260040160405180910390fd5b5f60208284031215610d3e575f80fd5b81356001600160e01b031981168114610d55575f80fd5b9392505050565b5f6020808352835180828501525f5b81811015610d8757858101830151858201604001528201610d6b565b505f604082860101526040601f19601f8301168501019250505092915050565b80356001600160a01b0381168114610dbd575f80fd5b919050565b5f8060408385031215610dd3575f80fd5b610ddc83610da7565b946020939093013593505050565b5f805f60608486031215610dfc575f80fd5b610e0584610da7565b9250610e1360208501610da7565b9150604084013590509250925092565b5f60208284031215610e33575f80fd5b5035919050565b5f8060408385031215610e4b575f80fd5b82359150610e5b60208401610da7565b90509250929050565b5f60208284031215610e74575f80fd5b610d5582610da7565b5f8060408385031215610e8e575f80fd5b610e9783610da7565b9150610e5b60208401610da7565b600181811c90821680610eb957607f821691505b602082108103610ed757634e487b7160e01b5f52602260045260245ffd5b50919050565b6020808252601290820152710416d6f756e74206d757374206265203e20360741b604082015260600190565b8082018082111561037957634e487b7160e01b5f52601160045260245ffdfea2646970667358221220b600417f7b8232dfde3ebec4bf4d785496d6b762488320847c011db28731b46f64736f6c63430008140033","linkReferences":{}},"methodIdentifiers":{"BURNER_ROLE()":"282c51f3","DEFAULT_ADMIN_ROLE()":"a217fddf","MINTER_ROLE()":"d5391393","allowance(address,address)":"dd62ed3e","approve(address,uint256)":"095ea7b3","balanceOf(address)":"70a08231","burn(uint256)":"42966c68","burnFrom(address,uint256)":"79cc6790","decimals()":"313ce567","getRoleAdmin(bytes32)":"248a9ca3","grantRole(bytes32,address)":"2f2ff15d","hasRole(bytes32,address)":"91d14854","mint(address,uint256)":"40c10f19","name()":"06fdde03","pause()":"8456cb59","paused()":"5c975abb","renounceRole(bytes32,address)":"36568abe","revokeRole(bytes32,address)":"d547741f","supportsInterface(bytes4)":"01ffc9a7","symbol()":"95d89b41","totalSupply()":"18160ddd","transfer(address,uint256)":"a9059cbb","transferFrom(address,address,uint256)":"23b872dd","unpause()":"3f4ba83a"},"id":17}