{"abi":[{"type":"constructor","inputs":[{"name":"_sarcToken","type":"address","internalType":"address"},{"name":"_usdcToken","type":"address","internalType":"address"},{"name":"_usdcPerKwh","type":"uint256","internalType":"uint256"}],"stateMutability":"nonpayable"},{"type":"function","name":"BURNER_ROLE","inputs":[],"outputs":[{"name":"","type":"bytes32","internalType":"bytes32"}],"stateMutability":"view"},{"type":"function","name":"DEFAULT_ADMIN_ROLE","inputs":[],"outputs":[{"name":"","type":"bytes32","internalType":"bytes32"}],"stateMutability":"view"},{"type":"function","name":"MIN_REDEMPTION","inputs":[],"outputs":[{"name":"","type":"uint256","internalType":"uint256"}],"stateMutability":"view"},{"type":"function","name":"OPERATOR_ROLE","inputs":[],"outputs":[{"name":"","type":"bytes32","internalType":"bytes32"}],"stateMutability":"view"},{"type":"function","name":"calculateRedemptionAmount","inputs":[{"name":"_sarcAmount","type":"uint256","internalType":"uint256"}],"outputs":[{"name":"usdcAmount","type":"uint256","internalType":"uint256"}],"stateMutability":"view"},{"type":"function","name":"emergencyWithdrawSARC","inputs":[{"name":"_to","type":"address","internalType":"address"},{"name":"_amount","type":"uint256","internalType":"uint256"}],"outputs":[],"stateMutability":"nonpayable"},{"type":"function","name":"emergencyWithdrawUSDC","inputs":[{"name":"_to","type":"address","internalType":"address"},{"name":"_amount","type":"uint256","internalType":"uint256"}],"outputs":[],"stateMutability":"nonpayable"},{"type":"function","name":"fundTreasury","inputs":[{"name":"_amount","type":"uint256","internalType":"uint256"}],"outputs":[],"stateMutability":"nonpayable"},{"type":"function","name":"getRoleAdmin","inputs":[{"name":"role","type":"bytes32","internalType":"bytes32"}],"outputs":[{"name":"","type":"bytes32","internalType":"bytes32"}],"stateMutability":"view"},{"type":"function","name":"getTreasuryBalance","inputs":[],"outputs":[{"name":"sarcBalance","type":"uint256","internalType":"uint256"},{"name":"usdcBalance","type":"uint256","internalType":"uint256"}],"stateMutability":"view"},{"type":"function","name":"grantRole","inputs":[{"name":"role","type":"bytes32","internalType":"bytes32"},{"name":"account","type":"address","internalType":"address"}],"outputs":[],"stateMutability":"nonpayable"},{"type":"function","name":"hasRole","inputs":[{"name":"role","type":"bytes32","internalType":"bytes32"},{"name":"account","type":"address","internalType":"address"}],"outputs":[{"name":"","type":"bool","internalType":"bool"}],"stateMutability":"view"},{"type":"function","name":"pause","inputs":[],"outputs":[],"stateMutability":"nonpayable"},{"type":"function","name":"paused","inputs":[],"outputs":[{"name":"","type":"bool","internalType":"bool"}],"stateMutability":"view"},{"type":"function","name":"redeemForUSDC","inputs":[{"name":"_sarcAmount","type":"uint256","internalType":"uint256"},{"name":"_ipfsProof","type":"string","internalType":"string"}],"outputs":[],"stateMutability":"nonpayable"},{"type":"function","name":"renounceRole","inputs":[{"name":"role","type":"bytes32","internalType":"bytes32"},{"name":"callerConfirmation","type":"address","internalType":"address"}],"outputs":[],"stateMutability":"nonpayable"},{"type":"function","name":"revokeRole","inputs":[{"name":"role","type":"bytes32","internalType":"bytes32"},{"name":"account","type":"address","internalType":"address"}],"outputs":[],"stateMutability":"nonpayable"},{"type":"function","name":"sarcToken","inputs":[],"outputs":[{"name":"","type":"address","internalType":"contract IERC20"}],"stateMutability":"view"},{"type":"function","name":"setExchangeRate","inputs":[{"name":"_newRate","type":"uint256","internalType":"uint256"}],"outputs":[],"stateMutability":"nonpayable"},{"type":"function","name":"supportsInterface","inputs":[{"name":"interfaceId","type":"bytes4","internalType":"bytes4"}],"outputs":[{"name":"","type":"bool","internalType":"bool"}],"stateMutability":"view"},{"type":"function","name":"totalRedeemed","inputs":[],"outputs":[{"name":"","type":"uint256","internalType":"uint256"}],"stateMutability":"view"},{"type":"function","name":"totalUsdcDistributed","inputs":[],"outputs":[{"name":"","type":"uint256","internalType":"uint256"}],"stateMutability":"view"},{"type":"function","name":"unpause","inputs":[],"outputs":[],"stateMutability":"nonpayable"},{"type":"function","name":"usdcPerKwh","inputs":[],"outputs":[{"name":"","type":"uint256","internalType":"uint256"}],"stateMutability":"view"},{"type":"function","name":"usdcToken","inputs":[],"outputs":[{"name":"","type":"address","internalType":"contract IERC20"}],"stateMutability":"view"},{"type":"event","name":"EmergencyWithdraw","inputs":[{"name":"to","type":"address","indexed":true,"internalType":"address"},{"name":"amount","type":"uint256","indexed":false,"internalType":"uint256"}],"anonymous":false},{"type":"event","name":"ExchangeRateUpdated","inputs":[{"name":"oldRate","type":"uint256","indexed":false,"internalType":"uint256"},{"name":"newRate","type":"uint256","indexed":false,"internalType":"uint256"}],"anonymous":false},{"type":"event","name":"Paused","inputs":[{"name":"account","type":"address","indexed":false,"internalType":"address"}],"anonymous":false},{"type":"event","name":"Redeemed","inputs":[{"name":"user","type":"address","indexed":true,"internalType":"address"},{"name":"sarcAmount","type":"uint256","indexed":false,"internalType":"uint256"},{"name":"usdcAmount","type":"uint256","indexed":false,"internalType":"uint256"},{"name":"ipfsProof","type":"string","indexed":false,"internalType":"string"}],"anonymous":false},{"type":"event","name":"RoleAdminChanged","inputs":[{"name":"role","type":"bytes32","indexed":true,"internalType":"bytes32"},{"name":"previousAdminRole","type":"bytes32","indexed":true,"internalType":"bytes32"},{"name":"newAdminRole","type":"bytes32","indexed":true,"internalType":"bytes32"}],"anonymous":false},{"type":"event","name":"RoleGranted","inputs":[{"name":"role","type":"bytes32","indexed":true,"internalType":"bytes32"},{"name":"account","type":"address","indexed":true,"internalType":"address"},{"name":"sender","type":"address","indexed":true,"internalType":"address"}],"anonymous":false},{"type":"event","name":"RoleRevoked","inputs":[{"name":"role","type":"bytes32","indexed":true,"internalType":"bytes32"},{"name":"account","type":"address","indexed":true,"internalType":"address"},{"name":"sender","type":"address","indexed":true,"internalType":"address"}],"anonymous":false},{"type":"event","name":"TreasuryFunded","inputs":[{"name":"funder","type":"address","indexed":true,"internalType":"address"},{"name":"amount","type":"uint256","indexed":false,"internalType":"uint256"}],"anonymous":false},{"type":"event","name":"Unpaused","inputs":[{"name":"account","type":"address","indexed":false,"internalType":"address"}],"anonymous":false},{"type":"error","name":"AccessControlBadConfirmation","inputs":[]},{"type":"error","name":"AccessControlUnauthorizedAccount","inputs":[{"name":"account","type":"address","internalType":"address"},{"name":"neededRole","type":"bytes32","internalType":"bytes32"}]},{"type":"error","name":"EnforcedPause","inputs":[]},{"type":"error","name":"ExpectedPause","inputs":[]},{"type":"error","name":"ReentrancyGuardReentrantCall","inputs":[]},{"type":"error","name":"SafeERC20FailedOperation","inputs":[{"name":"token","type":"address","internalType":"address"}]}],"bytecode":{"object":"0x60c060405234801562000010575f80fd5b50604051620015b4380380620015b483398101604081905262000033916200028d565b60016002556001600160a01b038316620000945760405162461bcd60e51b815260206004820152601460248201527f496e76616c69642073415243206164647265737300000000000000000000000060448201526064015b60405180910390fd5b6001600160a01b038216620000ec5760405162461bcd60e51b815260206004820152601460248201527f496e76616c69642055534443206164647265737300000000000000000000000060448201526064016200008b565b5f81116200013d5760405162461bcd60e51b815260206004820152601960248201527f45786368616e67652072617465206d757374206265203e20300000000000000060448201526064016200008b565b6001600160a01b03808416608052821660a0526003819055620001615f33620001c5565b506200018e7f97667070c54ef182b0f5858b034beac1b6f3089aa2d3188bb1e8929f4fa9b92933620001c5565b50620001bb7f3c11d16cbaffd01df69ce1c404f6340ee057498f5f00246190ea54220576a84833620001c5565b50505050620002cb565b5f828152602081815260408083206001600160a01b038516845290915281205460ff1662000268575f838152602081815260408083206001600160a01b03861684529091529020805460ff191660011790556200021f3390565b6001600160a01b0316826001600160a01b0316847f2f8788117e7eff1d82e926ec794901d17c78024a50270940304540a733656f0d60405160405180910390a45060016200026b565b505f5b92915050565b80516001600160a01b038116811462000288575f80fd5b919050565b5f805f60608486031215620002a0575f80fd5b620002ab8462000271565b9250620002bb6020850162000271565b9150604084015190509250925092565b60805160a051611281620003335f395f818161019e015281816104b701528181610752015281816108d201528181610a410152610c6501525f81816102b6015281816106160152818161082201528181610866015281816109c00152610bed01526112815ff3fe608060405234801561000f575f80fd5b506004361061016d575f3560e01c806376074b35116100d9578063a217fddf11610093578063df5e5bc81161006e578063df5e5bc814610350578063f35dad4014610363578063f5b541a61461036c578063f6471f4b14610393575f80fd5b8063a217fddf14610323578063d547741f1461032a578063db068e0e1461033d575f80fd5b806376074b351461029e5780637a145809146102b15780638456cb59146102d85780638673a224146102e057806391d14854146102f35780639b5655dc14610306575f80fd5b80633f4ba83a1161012a5780633f4ba83a146102575780633fac81051461025f57806353d3ee591461027257806355a032b81461027b5780635c975abb1461028a57806369d7077414610295575f80fd5b806301ffc9a71461017157806311eac85514610199578063248a9ca3146101d8578063282c51f3146102085780632f2ff15d1461022f57806336568abe14610244575b5f80fd5b61018461017f366004611002565b6103a6565b60405190151581526020015b60405180910390f35b6101c07f000000000000000000000000000000000000000000000000000000000000000081565b6040516001600160a01b039091168152602001610190565b6101fa6101e6366004611030565b5f9081526020819052604090206001015490565b604051908152602001610190565b6101fa7f3c11d16cbaffd01df69ce1c404f6340ee057498f5f00246190ea54220576a84881565b61024261023d366004611062565b6103dc565b005b610242610252366004611062565b610406565b61024261043e565b61024261026d36600461108c565b610453565b6101fa60055481565b6101fa670de0b6b3a764000081565b60015460ff16610184565b6101fa60035481565b6101fa6102ac366004611030565b610526565b6101c07f000000000000000000000000000000000000000000000000000000000000000081565b610242610548565b6102426102ee3660046110c8565b61055a565b610184610301366004611062565b610977565b61030e61099f565b60408051928352602083019190915201610190565b6101fa5f81565b610242610338366004611062565b610ab8565b61024261034b366004611030565b610adc565b61024261035e36600461108c565b610b8e565b6101fa60045481565b6101fa7f97667070c54ef182b0f5858b034beac1b6f3089aa2d3188bb1e8929f4fa9b92981565b6102426103a1366004611030565b610c14565b5f6001600160e01b03198216637965db0b60e01b14806103d657506301ffc9a760e01b6001600160e01b03198316145b92915050565b5f828152602081905260409020600101546103f681610cc5565b6104008383610ccf565b50505050565b6001600160a01b038116331461042f5760405163334bd91960e11b815260040160405180910390fd5b6104398282610d5e565b505050565b5f61044881610cc5565b610450610dc7565b50565b5f61045d81610cc5565b6001600160a01b0383166104aa5760405162461bcd60e51b815260206004820152600f60248201526e496e76616c6964206164647265737360881b60448201526064015b60405180910390fd5b6104de6001600160a01b037f0000000000000000000000000000000000000000000000000000000000000000168484610e19565b826001600160a01b03167f5fafa99d0643513820be26656b45130b01e1c03062e1266bf36f88cbd3bd96958360405161051991815260200190565b60405180910390a2505050565b5f670de0b6b3a76400006003548361053e9190611191565b6103d691906111a8565b5f61055281610cc5565b610450610e78565b610562610eb3565b61056a610edb565b670de0b6b3a76400008210156105b95760405162461bcd60e51b8152602060048201526014602482015273416d6f756e742062656c6f77206d696e696d756d60601b60448201526064016104a1565b5f8151116105ff5760405162461bcd60e51b815260206004820152601360248201527212541194c81c1c9bdbd9881c995c5d5a5c9959606a1b60448201526064016104a1565b6040516370a0823160e01b815233600482015282907f00000000000000000000000000000000000000000000000000000000000000006001600160a01b0316906370a0823190602401602060405180830381865afa158015610663573d5f803e3d5ffd5b505050506040513d601f19601f8201168201806040525081019061068791906111c7565b10156106d55760405162461bcd60e51b815260206004820152601960248201527f496e73756666696369656e7420734152432062616c616e63650000000000000060448201526064016104a1565b5f620f4240600354846106e89190611191565b6106f291906111a8565b90505f811161073b5760405162461bcd60e51b81526020600482015260156024820152741554d110c8185b5bdd5b9d081d1bdbc81cdb585b1b605a1b60448201526064016104a1565b6040516370a0823160e01b81523060048201525f907f00000000000000000000000000000000000000000000000000000000000000006001600160a01b0316906370a0823190602401602060405180830381865afa15801561079f573d5f803e3d5ffd5b505050506040513d601f19601f820116820180604052508101906107c391906111c7565b9050818110156108155760405162461bcd60e51b815260206004820152601d60248201527f496e73756666696369656e742054726561737572792062616c616e636500000060448201526064016104a1565b61084a6001600160a01b037f000000000000000000000000000000000000000000000000000000000000000016333087610f01565b60405163079cc67960e41b8152306004820152602481018590527f00000000000000000000000000000000000000000000000000000000000000006001600160a01b0316906379cc6790906044015f604051808303815f87803b1580156108af575f80fd5b505af11580156108c1573d5f803e3d5ffd5b506108fb9250506001600160a01b037f00000000000000000000000000000000000000000000000000000000000000001690503384610e19565b8360045f82825461090c91906111de565b925050819055508160055f82825461092491906111de565b909155505060405133907f1808b841eb16c14c59b7f58642fb214dc5a2fe88a2844142a9b1cc36aa9e3d0c9061095f908790869088906111f1565b60405180910390a250506109736001600255565b5050565b5f918252602082815260408084206001600160a01b0393909316845291905290205460ff1690565b6040516370a0823160e01b81523060048201525f9081906001600160a01b037f000000000000000000000000000000000000000000000000000000000000000016906370a0823190602401602060405180830381865afa158015610a05573d5f803e3d5ffd5b505050506040513d601f19601f82011682018060405250810190610a2991906111c7565b6040516370a0823160e01b81523060048201529092507f00000000000000000000000000000000000000000000000000000000000000006001600160a01b0316906370a0823190602401602060405180830381865afa158015610a8e573d5f803e3d5ffd5b505050506040513d601f19601f82011682018060405250810190610ab291906111c7565b90509091565b5f82815260208190526040902060010154610ad281610cc5565b6104008383610d5e565b7f97667070c54ef182b0f5858b034beac1b6f3089aa2d3188bb1e8929f4fa9b929610b0681610cc5565b5f8211610b485760405162461bcd60e51b815260206004820152601060248201526f052617465206d757374206265203e20360841b60448201526064016104a1565b600380549083905560408051828152602081018590527fc8d1043f24843c0a1c9251fdc30017d84e87498fbcf232af9f86816b5e182bde910160405180910390a1505050565b5f610b9881610cc5565b6001600160a01b038316610be05760405162461bcd60e51b815260206004820152600f60248201526e496e76616c6964206164647265737360881b60448201526064016104a1565b6104de6001600160a01b037f0000000000000000000000000000000000000000000000000000000000000000168484610e19565b5f8111610c585760405162461bcd60e51b81526020600482015260126024820152710416d6f756e74206d757374206265203e20360741b60448201526064016104a1565b610c8d6001600160a01b037f000000000000000000000000000000000000000000000000000000000000000016333084610f01565b60405181815233907fda1785fe1dec267c363b06ae3e02c3e086123f9d611399f7a1cc98492518372e9060200160405180910390a250565b6104508133610f3a565b5f610cda8383610977565b610d57575f838152602081815260408083206001600160a01b03861684529091529020805460ff19166001179055610d0f3390565b6001600160a01b0316826001600160a01b0316847f2f8788117e7eff1d82e926ec794901d17c78024a50270940304540a733656f0d60405160405180910390a45060016103d6565b505f6103d6565b5f610d698383610977565b15610d57575f838152602081815260408083206001600160a01b0386168085529252808320805460ff1916905551339286917ff6391f5c32d9c69d2a47ea670b442974b53935d1edc7fd64eb21e047a839171b9190a45060016103d6565b610dcf610f73565b6001805460ff191690557f5db9ee0a495bf2e6ff9c91a7834c1ba4fdd244a5e8aa4e537bd38aeae4b073aa335b6040516001600160a01b03909116815260200160405180910390a1565b6040516001600160a01b0383811660248301526044820183905261043991859182169063a9059cbb906064015b604051602081830303815290604052915060e01b6020820180516001600160e01b038381831617835250505050610f96565b610e80610edb565b6001805460ff1916811790557f62e78cea01bee320cd4e420270b5ea74000d11b0c9f74754ebdbfc544b05a25833610dfc565b6002805403610ed557604051633ee5aeb560e01b815260040160405180910390fd5b60028055565b60015460ff1615610eff5760405163d93c066560e01b815260040160405180910390fd5b565b6040516001600160a01b0384811660248301528381166044830152606482018390526104009186918216906323b872dd90608401610e46565b610f448282610977565b6109735760405163e2517d3f60e01b81526001600160a01b0382166004820152602481018390526044016104a1565b60015460ff16610eff57604051638dfc202b60e01b815260040160405180910390fd5b5f8060205f8451602086015f885af180610fb5576040513d5f823e3d81fd5b50505f513d91508115610fcc578060011415610fd9565b6001600160a01b0384163b155b1561040057604051635274afe760e01b81526001600160a01b03851660048201526024016104a1565b5f60208284031215611012575f80fd5b81356001600160e01b031981168114611029575f80fd5b9392505050565b5f60208284031215611040575f80fd5b5035919050565b80356001600160a01b038116811461105d575f80fd5b919050565b5f8060408385031215611073575f80fd5b8235915061108360208401611047565b90509250929050565b5f806040838503121561109d575f80fd5b6110a683611047565b946020939093013593505050565b634e487b7160e01b5f52604160045260245ffd5b5f80604083850312156110d9575f80fd5b82359150602083013567ffffffffffffffff808211156110f7575f80fd5b818501915085601f83011261110a575f80fd5b81358181111561111c5761111c6110b4565b604051601f8201601f19908116603f01168101908382118183101715611144576111446110b4565b8160405282815288602084870101111561115c575f80fd5b826020860160208301375f6020848301015280955050505050509250929050565b634e487b7160e01b5f52601160045260245ffd5b80820281158282048414176103d6576103d661117d565b5f826111c257634e487b7160e01b5f52601260045260245ffd5b500490565b5f602082840312156111d7575f80fd5b5051919050565b808201808211156103d6576103d661117d565b8381525f602084818401526060604084015283518060608501525f5b818110156112295785810183015185820160800152820161120d565b505f608082860101526080601f19601f8301168501019250505094935050505056fea264697066735822122066b8f4dfd80e645ccb9c2fa0416167cf71d00263b0f1297b44eef3b88a004b5864736f6c63430008140033","linkReferences":{}},"methodIdentifiers":{"BURNER_ROLE()":"282c51f3","DEFAULT_ADMIN_ROLE()":"a217fddf","MIN_REDEMPTION()":"55a032b8","OPERATOR_ROLE()":"f5b541a6","calculateRedemptionAmount(uint256)":"76074b35","emergencyWithdrawSARC(address,uint256)":"df5e5bc8","emergencyWithdrawUSDC(address,uint256)":"3fac8105","fundTreasury(uint256)":"f6471f4b","getRoleAdmin(bytes32)":"248a9ca3","getTreasuryBalance()":"9b5655dc","grantRole(bytes32,address)":"2f2ff15d","hasRole(bytes32,address)":"91d14854","pause()":"8456cb59","paused()":"5c975abb","redeemForUSDC(uint256,string)":"8673a224","renounceRole(bytes32,address)":"36568abe","revokeRole(bytes32,address)":"d547741f","sarcToken()":"7a145809","setExchangeRate(uint256)":"db068e0e","supportsInterface(bytes4)":"01ffc9a7","totalRedeemed()":"f35dad40","totalUsdcDistributed()":"53d3ee59","unpause()":"3f4ba83a","usdcPerKwh()":"69d70774","usdcToken()":"11eac855"},"id":18}